{"abi":[{"type":"constructor","inputs":[{"name":"_requiredStake","type":"uint256","internalType":"uint256"},{"name":"_heartbeatInterval","type":"uint256","internalType":"uint256"},{"name":"_slashedFundsSink","type":"address","internalType":"address"}],"stateMutability":"nonpayable"},{"type":"function","name":"getParticipant","inputs":[{"name":"user","type":"address","internalType":"address"}],"outputs":[{"name":"","type":"tuple","internalType":"struct IProofOfLiveness.Participant","components":[{"name":"stakeAmount","type":"uint256","internalType":"uint256"},{"name":"lastHeartbeat","type":"uint256","internalType":"uint256"}]}],"stateMutability":"view"},{"type":"function","name":"heartbeat","inputs":[],"outputs":[],"stateMutability":"nonpayable"},{"type":"function","name":"heartbeatInterval","inputs":[],"outputs":[{"name":"","type":"uint256","internalType":"uint256"}],"stateMutability":"view"},{"type":"function","name":"isActive","inputs":[{"name":"user","type":"address","internalType":"address"}],"outputs":[{"name":"","type":"bool","internalType":"bool"}],"stateMutability":"view"},{"type":"function","name":"join","inputs":[],"outputs":[],"stateMutability":"payable"},{"type":"function","name":"requiredStake","inputs":[],"outputs":[{"name":"","type":"uint256","internalType":"uint256"}],"stateMutability":"view"},{"type":"function","name":"slash","inputs":[{"name":"user","type":"address","internalType":"address"}],"outputs":[],"stateMutability":"nonpayable"},{"type":"function","name":"slashedFundsSink","inputs":[],"outputs":[{"name":"","type":"address","internalType":"address"}],"stateMutability":"view"},{"type":"event","name":"Heartbeat","inputs":[{"name":"user","type":"address","indexed":true,"internalType":"address"},{"name":"timestamp","type":"uint256","indexed":false,"internalType":"uint256"}],"anonymous":false},{"type":"event","name":"Joined","inputs":[{"name":"user","type":"address","indexed":true,"internalType":"address"},{"name":"stakeAmount","type":"uint256","indexed":false,"internalType":"uint256"},{"name":"timestamp","type":"uint256","indexed":false,"internalType":"uint256"}],"anonymous":false},{"type":"event","name":"Slashed","inputs":[{"name":"user","type":"address","indexed":true,"internalType":"address"},{"name":"slasher","type":"address","indexed":true,"internalType":"address"},{"name":"slasherReward","type":"uint256","indexed":false,"internalType":"uint256"},{"name":"sinkAmount","type":"uint256","indexed":false,"internalType":"uint256"}],"anonymous":false},{"type":"error","name":"AlreadyJoined","inputs":[{"name":"user","type":"address","internalType":"address"}]},{"type":"error","name":"IncorrectStake","inputs":[{"name":"sent","type":"uint256","internalType":"uint256"},{"name":"required","type":"uint256","internalType":"uint256"}]},{"type":"error","name":"NoStake","inputs":[{"name":"user","type":"address","internalType":"address"}]},{"type":"error","name":"NotActive","inputs":[{"name":"user","type":"address","internalType":"address"}]},{"type":"error","name":"NotSlashable","inputs":[{"name":"user","type":"address","internalType":"address"}]}],"bytecode":{"object":"0x60e060405234801561000f575f80fd5b5060405161090638038061090683398101604081905261002e9161016f565b5f831161008d5760405162461bcd60e51b815260206004820152602260248201527f50726f6f664f664c6976656e6573733a207374616b65206d757374206265203e604482015261020360f41b60648201526084015b60405180910390fd5b5f82116100ea5760405162461bcd60e51b815260206004820152602560248201527f50726f6f664f664c6976656e6573733a20696e74657276616c206d7573742062604482015264065203e20360dc1b6064820152608401610084565b6001600160a01b0381166101555760405162461bcd60e51b815260206004820152602c60248201527f50726f6f664f664c6976656e6573733a2073696e6b2063616e6e6f742062652060448201526b7a65726f206164647265737360a01b6064820152608401610084565b60809290925260a0526001600160a01b031660c0526101b1565b5f805f60608486031215610181575f80fd5b83516020850151604086015191945092506001600160a01b03811681146101a6575f80fd5b809150509250925092565b60805160a05160c0516107116101f55f395f81816101cc015261057c01525f818160ea01526102c701525f8181608e01528181610330015261036901526107115ff3fe608060405260043610610079575f3560e01c80639f8a13d71161004c5780639f8a13d714610184578063b688a363146101b3578063c63565f3146101bb578063c96be4cb14610206575f80fd5b806319cb355d1461007d5780633defb962146100c3578063561a4fac146100d95780637143059f1461010c575b5f80fd5b348015610088575f80fd5b506100b07f000000000000000000000000000000000000000000000000000000000000000081565b6040519081526020015b60405180910390f35b3480156100ce575f80fd5b506100d7610225565b005b3480156100e4575f80fd5b506100b07f000000000000000000000000000000000000000000000000000000000000000081565b348015610117575f80fd5b5061016961012636600461064f565b604080518082019091525f8082526020820152506001600160a01b03165f9081526020818152604091829020825180840190935280548352600101549082015290565b604080518251815260209283015192810192909252016100ba565b34801561018f575f80fd5b506101a361019e36600461064f565b61029e565b60405190151581526020016100ba565b6100d76102ff565b3480156101c6575f80fd5b506101ee7f000000000000000000000000000000000000000000000000000000000000000081565b6040516001600160a01b0390911681526020016100ba565b348015610211575f80fd5b506100d761022036600461064f565b6103f7565b61022e3361029e565b61025257604051634022bc5560e01b81523360048201526024015b60405180910390fd5b335f818152602081815260409182902042600190910181905591519182527f524ff62d10e7448ae7f4b3312273a3f8400a0662bc7991a69119576c86cecabe91015b60405180910390a2565b6001600160a01b0381165f908152602081905260408120805482036102c557505f92915050565b7f000000000000000000000000000000000000000000000000000000000000000081600101546102f59190610690565b4211159392505050565b335f908152602081905260409020541561032e57604051637ca7fcf160e11b8152336004820152602401610249565b7f00000000000000000000000000000000000000000000000000000000000000003414610395576040516214d6a760e11b81523460048201527f00000000000000000000000000000000000000000000000000000000000000006024820152604401610249565b60408051808201825234808252426020808401828152335f818152808452879020955186559051600190950194909455845192835282015290917f16a5410c80ce4d4082839ea17ff9fae01b3924da3e586c0e4ba3cdb1c9f7dae29101610294565b6001600160a01b0381165f9081526020819052604090206104178261029e565b1561044057604051636b7baa3b60e11b81526001600160a01b0383166004820152602401610249565b80545f0361046c5760405163089858e760e11b81526001600160a01b0383166004820152602401610249565b80545f61047a600a836106a9565b90505f61048782846106c8565b5f8555604080518481526020810183905291925033916001600160a01b038816917f2ad67d4a3e40fbdc9faeef32237ae01635b2ec4451e4e61d0bafed3606cfa421910160405180910390a36040515f90339084908381818185875af1925050503d805f8114610512576040519150601f19603f3d011682016040523d82523d5f602084013e610517565b606091505b50509050806105795760405162461bcd60e51b815260206004820152602860248201527f50726f6f664f664c6976656e6573733a20736c6173686572207472616e7366656044820152671c8819985a5b195960c21b6064820152608401610249565b5f7f00000000000000000000000000000000000000000000000000000000000000006001600160a01b0316836040515f6040518083038185875af1925050503d805f81146105e2576040519150601f19603f3d011682016040523d82523d5f602084013e6105e7565b606091505b50509050806106465760405162461bcd60e51b815260206004820152602560248201527f50726f6f664f664c6976656e6573733a2073696e6b207472616e736665722066604482015264185a5b195960da1b6064820152608401610249565b50505050505050565b5f6020828403121561065f575f80fd5b81356001600160a01b0381168114610675575f80fd5b9392505050565b634e487b7160e01b5f52601160045260245ffd5b808201808211156106a3576106a361067c565b92915050565b5f826106c357634e487b7160e01b5f52601260045260245ffd5b500490565b818103818111156106a3576106a361067c56fea264697066735822122032d3119c08e0857754a4833b7337f1e662b3206ec6d368b40fb9f8cc7b0e8c9264736f6c63430008140033","linkReferences":{}},"methodIdentifiers":{"getParticipant(address)":"7143059f","heartbeat()":"3defb962","heartbeatInterval()":"561a4fac","isActive(address)":"9f8a13d7","join()":"b688a363","requiredStake()":"19cb355d","slash(address)":"c96be4cb","slashedFundsSink()":"c63565f3"},"id":22}