{"abi":[{"type":"constructor","inputs":[{"name":"_requiredStake","type":"uint256","internalType":"uint256"},{"name":"_heartbeatInterval","type":"uint256","internalType":"uint256"},{"name":"_slashedFundsSink","type":"address","internalType":"address"}],"stateMutability":"nonpayable"},{"type":"function","name":"getParticipant","inputs":[{"name":"user","type":"address","internalType":"address"}],"outputs":[{"name":"","type":"tuple","internalType":"struct IProofOfLiveness.Participant","components":[{"name":"stakeAmount","type":"uint256","internalType":"uint256"},{"name":"lastHeartbeat","type":"uint256","internalType":"uint256"}]}],"stateMutability":"view"},{"type":"function","name":"heartbeat","inputs":[],"outputs":[],"stateMutability":"nonpayable"},{"type":"function","name":"heartbeatInterval","inputs":[],"outputs":[{"name":"","type":"uint256","internalType":"uint256"}],"stateMutability":"view"},{"type":"function","name":"isActive","inputs":[{"name":"user","type":"address","internalType":"address"}],"outputs":[{"name":"","type":"bool","internalType":"bool"}],"stateMutability":"view"},{"type":"function","name":"join","inputs":[],"outputs":[],"stateMutability":"payable"},{"type":"function","name":"participantCount","inputs":[],"outputs":[{"name":"","type":"uint256","internalType":"uint256"}],"stateMutability":"view"},{"type":"function","name":"requiredStake","inputs":[],"outputs":[{"name":"","type":"uint256","internalType":"uint256"}],"stateMutability":"view"},{"type":"function","name":"slash","inputs":[{"name":"user","type":"address","internalType":"address"}],"outputs":[],"stateMutability":"nonpayable"},{"type":"function","name":"slashedFundsSink","inputs":[],"outputs":[{"name":"","type":"address","internalType":"address"}],"stateMutability":"view"},{"type":"function","name":"withdraw","inputs":[],"outputs":[],"stateMutability":"nonpayable"},{"type":"event","name":"Heartbeat","inputs":[{"name":"user","type":"address","indexed":true,"internalType":"address"},{"name":"timestamp","type":"uint256","indexed":false,"internalType":"uint256"}],"anonymous":false},{"type":"event","name":"Joined","inputs":[{"name":"user","type":"address","indexed":true,"internalType":"address"},{"name":"stakeAmount","type":"uint256","indexed":false,"internalType":"uint256"},{"name":"timestamp","type":"uint256","indexed":false,"internalType":"uint256"}],"anonymous":false},{"type":"event","name":"Slashed","inputs":[{"name":"user","type":"address","indexed":true,"internalType":"address"},{"name":"slasher","type":"address","indexed":true,"internalType":"address"},{"name":"slasherReward","type":"uint256","indexed":false,"internalType":"uint256"},{"name":"sinkAmount","type":"uint256","indexed":false,"internalType":"uint256"}],"anonymous":false},{"type":"event","name":"Withdrawn","inputs":[{"name":"user","type":"address","indexed":true,"internalType":"address"},{"name":"amount","type":"uint256","indexed":false,"internalType":"uint256"}],"anonymous":false},{"type":"error","name":"AlreadyJoined","inputs":[{"name":"user","type":"address","internalType":"address"}]},{"type":"error","name":"IncorrectStake","inputs":[{"name":"sent","type":"uint256","internalType":"uint256"},{"name":"required","type":"uint256","internalType":"uint256"}]},{"type":"error","name":"NoStake","inputs":[{"name":"user","type":"address","internalType":"address"}]},{"type":"error","name":"NotActive","inputs":[{"name":"user","type":"address","internalType":"address"}]},{"type":"error","name":"NotSlashable","inputs":[{"name":"user","type":"address","internalType":"address"}]},{"type":"error","name":"TransferFailed","inputs":[{"name":"to","type":"address","internalType":"address"},{"name":"amount","type":"uint256","internalType":"uint256"}]},{"type":"error","name":"ZeroAddress","inputs":[]}],"bytecode":{"object":"0x60e060405234801561000f575f80fd5b50604051610aa1380380610aa183398101604081905261002e916100c7565b825f0361005b576040516214d6a760e11b81525f6004820152600160248201526044015b60405180910390fd5b603c821015610086576040516214d6a760e11b815260048101839052603c6024820152604401610052565b6001600160a01b0381166100ad5760405163d92e233d60e01b815260040160405180910390fd5b60809290925260a0526001600160a01b031660c052610109565b5f805f606084860312156100d9575f80fd5b83516020850151604086015191945092506001600160a01b03811681146100fe575f80fd5b809150509250925092565b60805160a05160c05161094c6101555f395f818161020a01528181610781015261080c01525f8181610128015261049601525f818160a40152818161052f0152610568015261094c5ff3fe60806040526004361061008f575f3560e01c80637143059f116100575780637143059f1461014a5780639f8a13d7146101c2578063b688a363146101f1578063c63565f3146101f9578063c96be4cb14610244575f80fd5b806319cb355d14610093578063362f04c0146100d95780633ccfd60b146100ed5780633defb96214610103578063561a4fac14610117575b5f80fd5b34801561009e575f80fd5b506100c67f000000000000000000000000000000000000000000000000000000000000000081565b6040519081526020015b60405180910390f35b3480156100e4575f80fd5b506001546100c6565b3480156100f8575f80fd5b50610101610263565b005b34801561010e575f80fd5b506101016103bf565b348015610122575f80fd5b506100c67f000000000000000000000000000000000000000000000000000000000000000081565b348015610155575f80fd5b506101a7610164366004610853565b604080518082019091525f8082526020820152506001600160a01b03165f9081526020818152604091829020825180840190935280548352600101549082015290565b604080518251815260209283015192810192909252016100d0565b3480156101cd575f80fd5b506101e16101dc366004610853565b61046d565b60405190151581526020016100d0565b6101016104ce565b348015610204575f80fd5b5061022c7f000000000000000000000000000000000000000000000000000000000000000081565b6040516001600160a01b0390911681526020016100d0565b34801561024f575f80fd5b5061010161025e366004610853565b6105fa565b60025460ff161561028f5760405162461bcd60e51b815260040161028690610880565b60405180910390fd5b6002805460ff19166001179055335f90815260208190526040812080549091036102ce5760405163089858e760e11b8152336004820152602401610286565b6102d73361046d565b6102f657604051634022bc5560e01b8152336004820152602401610286565b80545f80835560018084019190915580545f1901905560405181815233907f7084f5476618d8e60b11ef0d7d3f06914655adb8793e28ff7f018d4c76d505d59060200160405180910390a26040515f90339083908381818185875af1925050503d805f8114610380576040519150601f19603f3d011682016040523d82523d5f602084013e610385565b606091505b50509050806103b057604051630e21dcbb60e11b815233600482015260248101839052604401610286565b50506002805460ff1916905550565b60025460ff16156103e25760405162461bcd60e51b815260040161028690610880565b6002805460ff191660011790556103f83361046d565b61041757604051634022bc5560e01b8152336004820152602401610286565b335f818152602081815260409182902042600190910181905591519182527f524ff62d10e7448ae7f4b3312273a3f8400a0662bc7991a69119576c86cecabe91015b60405180910390a26002805460ff19169055565b6001600160a01b0381165f9081526020819052604081208054820361049457505f92915050565b7f000000000000000000000000000000000000000000000000000000000000000081600101546104c491906108cb565b4211159392505050565b60025460ff16156104f15760405162461bcd60e51b815260040161028690610880565b6002805460ff19166001179055335f908152602081905260409020541561052d57604051637ca7fcf160e11b8152336004820152602401610286565b7f00000000000000000000000000000000000000000000000000000000000000003414610594576040516214d6a760e11b81523460048201527f00000000000000000000000000000000000000000000000000000000000000006024820152604401610286565b60408051808201825234808252426020808401828152335f81815280845287902095518655905160019586015584548501909455845192835282015290917f16a5410c80ce4d4082839ea17ff9fae01b3924da3e586c0e4ba3cdb1c9f7dae29101610459565b60025460ff161561061d5760405162461bcd60e51b815260040161028690610880565b6002805460ff191660011790556001600160a01b0381165f90815260208190526040902061064a8261046d565b1561067357604051636b7baa3b60e11b81526001600160a01b0383166004820152602401610286565b80545f0361069f5760405163089858e760e11b81526001600160a01b0383166004820152602401610286565b80545f6106ad600a836108e4565b90505f6106ba8284610903565b5f8555600180545f19019055604080518481526020810183905291925033916001600160a01b038816917f2ad67d4a3e40fbdc9faeef32237ae01635b2ec4451e4e61d0bafed3606cfa421910160405180910390a36040515f90339084908381818185875af1925050503d805f811461074e576040519150601f19603f3d011682016040523d82523d5f602084013e610753565b606091505b505090508061077e57604051630e21dcbb60e11b815233600482015260248101849052604401610286565b5f7f00000000000000000000000000000000000000000000000000000000000000006001600160a01b0316836040515f6040518083038185875af1925050503d805f81146107e7576040519150601f19603f3d011682016040523d82523d5f602084013e6107ec565b606091505b505090508061084057604051630e21dcbb60e11b81526001600160a01b037f000000000000000000000000000000000000000000000000000000000000000016600482015260248101849052604401610286565b50506002805460ff191690555050505050565b5f60208284031215610863575f80fd5b81356001600160a01b0381168114610879575f80fd5b9392505050565b6020808252601f908201527f50726f6f664f664c6976656e6573733a207265656e7472616e742063616c6c00604082015260600190565b634e487b7160e01b5f52601160045260245ffd5b808201808211156108de576108de6108b7565b92915050565b5f826108fe57634e487b7160e01b5f52601260045260245ffd5b500490565b818103818111156108de576108de6108b756fea264697066735822122071d0bb38622e6470be180a80fab5c3dd6004ca849600083d72b561f3b1a1514464736f6c63430008140033","linkReferences":{}},"methodIdentifiers":{"getParticipant(address)":"7143059f","heartbeat()":"3defb962","heartbeatInterval()":"561a4fac","isActive(address)":"9f8a13d7","join()":"b688a363","participantCount()":"362f04c0","requiredStake()":"19cb355d","slash(address)":"c96be4cb","slashedFundsSink()":"c63565f3","withdraw()":"3ccfd60b"},"id":22}